{
  "_format": "hh-sol-artifact-1",
  "contractName": "IdentityRegistry",
  "sourceName": "contracts/IdentityRegistry.sol",
  "abi": [
    {
      "inputs": [
        {
          "internalType": "address",
          "name": "admin",
          "type": "address"
        }
      ],
      "stateMutability": "nonpayable",
      "type": "constructor"
    },
    {
      "anonymous": false,
      "inputs": [
        {
          "indexed": true,
          "internalType": "address",
          "name": "user",
          "type": "address"
        },
        {
          "indexed": false,
          "internalType": "bool",
          "name": "consent",
          "type": "bool"
        }
      ],
      "name": "ConsentUpdated",
      "type": "event"
    },
    {
      "anonymous": false,
      "inputs": [
        {
          "indexed": true,
          "internalType": "address",
          "name": "user",
          "type": "address"
        },
        {
          "indexed": true,
          "internalType": "address",
          "name": "accessor",
          "type": "address"
        },
        {
          "indexed": true,
          "internalType": "string",
          "name": "fieldName",
          "type": "string"
        },
        {
          "indexed": false,
          "internalType": "uint256",
          "name": "timestamp",
          "type": "uint256"
        }
      ],
      "name": "EncryptedDataAccessed",
      "type": "event"
    },
    {
      "anonymous": false,
      "inputs": [
        {
          "indexed": true,
          "internalType": "address",
          "name": "user",
          "type": "address"
        },
        {
          "indexed": true,
          "internalType": "string",
          "name": "fieldName",
          "type": "string"
        },
        {
          "indexed": false,
          "internalType": "uint256",
          "name": "timestamp",
          "type": "uint256"
        }
      ],
      "name": "EncryptedDataStored",
      "type": "event"
    },
    {
      "anonymous": false,
      "inputs": [
        {
          "indexed": true,
          "internalType": "address",
          "name": "user",
          "type": "address"
        },
        {
          "indexed": false,
          "internalType": "string",
          "name": "jurisdiction",
          "type": "string"
        },
        {
          "indexed": false,
          "internalType": "string",
          "name": "ipfsCid",
          "type": "string"
        }
      ],
      "name": "IdentityRegistered",
      "type": "event"
    },
    {
      "anonymous": false,
      "inputs": [
        {
          "indexed": true,
          "internalType": "address",
          "name": "user",
          "type": "address"
        },
        {
          "indexed": false,
          "internalType": "string",
          "name": "ipfsCid",
          "type": "string"
        }
      ],
      "name": "IdentityUpdated",
      "type": "event"
    },
    {
      "anonymous": false,
      "inputs": [
        {
          "indexed": true,
          "internalType": "bytes32",
          "name": "role",
          "type": "bytes32"
        },
        {
          "indexed": true,
          "internalType": "bytes32",
          "name": "previousAdminRole",
          "type": "bytes32"
        },
        {
          "indexed": true,
          "internalType": "bytes32",
          "name": "newAdminRole",
          "type": "bytes32"
        }
      ],
      "name": "RoleAdminChanged",
      "type": "event"
    },
    {
      "anonymous": false,
      "inputs": [
        {
          "indexed": true,
          "internalType": "bytes32",
          "name": "role",
          "type": "bytes32"
        },
        {
          "indexed": true,
          "internalType": "address",
          "name": "account",
          "type": "address"
        },
        {
          "indexed": true,
          "internalType": "address",
          "name": "sender",
          "type": "address"
        }
      ],
      "name": "RoleGranted",
      "type": "event"
    },
    {
      "anonymous": false,
      "inputs": [
        {
          "indexed": true,
          "internalType": "bytes32",
          "name": "role",
          "type": "bytes32"
        },
        {
          "indexed": true,
          "internalType": "address",
          "name": "account",
          "type": "address"
        },
        {
          "indexed": true,
          "internalType": "address",
          "name": "sender",
          "type": "address"
        }
      ],
      "name": "RoleRevoked",
      "type": "event"
    },
    {
      "inputs": [],
      "name": "DEFAULT_ADMIN_ROLE",
      "outputs": [
        {
          "internalType": "bytes32",
          "name": "",
          "type": "bytes32"
        }
      ],
      "stateMutability": "view",
      "type": "function"
    },
    {
      "inputs": [],
      "name": "HR_ROLE",
      "outputs": [
        {
          "internalType": "bytes32",
          "name": "",
          "type": "bytes32"
        }
      ],
      "stateMutability": "view",
      "type": "function"
    },
    {
      "inputs": [
        {
          "internalType": "address",
          "name": "user",
          "type": "address"
        },
        {
          "internalType": "string",
          "name": "fieldName",
          "type": "string"
        }
      ],
      "name": "getEncryptedData",
      "outputs": [
        {
          "internalType": "string",
          "name": "",
          "type": "string"
        }
      ],
      "stateMutability": "view",
      "type": "function"
    },
    {
      "inputs": [
        {
          "internalType": "address",
          "name": "user",
          "type": "address"
        }
      ],
      "name": "getEncryptedFields",
      "outputs": [
        {
          "internalType": "string[]",
          "name": "",
          "type": "string[]"
        }
      ],
      "stateMutability": "view",
      "type": "function"
    },
    {
      "inputs": [
        {
          "internalType": "address",
          "name": "user",
          "type": "address"
        }
      ],
      "name": "getIdentity",
      "outputs": [
        {
          "internalType": "string",
          "name": "jurisdiction",
          "type": "string"
        },
        {
          "internalType": "string",
          "name": "ipfsCid",
          "type": "string"
        },
        {
          "internalType": "bool",
          "name": "consent",
          "type": "bool"
        }
      ],
      "stateMutability": "view",
      "type": "function"
    },
    {
      "inputs": [
        {
          "internalType": "bytes32",
          "name": "role",
          "type": "bytes32"
        }
      ],
      "name": "getRoleAdmin",
      "outputs": [
        {
          "internalType": "bytes32",
          "name": "",
          "type": "bytes32"
        }
      ],
      "stateMutability": "view",
      "type": "function"
    },
    {
      "inputs": [
        {
          "internalType": "bytes32",
          "name": "role",
          "type": "bytes32"
        },
        {
          "internalType": "address",
          "name": "account",
          "type": "address"
        }
      ],
      "name": "grantRole",
      "outputs": [],
      "stateMutability": "nonpayable",
      "type": "function"
    },
    {
      "inputs": [
        {
          "internalType": "address",
          "name": "user",
          "type": "address"
        }
      ],
      "name": "hasEncryptedData",
      "outputs": [
        {
          "internalType": "bool",
          "name": "",
          "type": "bool"
        }
      ],
      "stateMutability": "view",
      "type": "function"
    },
    {
      "inputs": [
        {
          "internalType": "bytes32",
          "name": "role",
          "type": "bytes32"
        },
        {
          "internalType": "address",
          "name": "account",
          "type": "address"
        }
      ],
      "name": "hasRole",
      "outputs": [
        {
          "internalType": "bool",
          "name": "",
          "type": "bool"
        }
      ],
      "stateMutability": "view",
      "type": "function"
    },
    {
      "inputs": [
        {
          "internalType": "address",
          "name": "user",
          "type": "address"
        },
        {
          "internalType": "string",
          "name": "jurisdiction",
          "type": "string"
        },
        {
          "internalType": "string",
          "name": "ipfsCid",
          "type": "string"
        }
      ],
      "name": "registerIdentity",
      "outputs": [],
      "stateMutability": "nonpayable",
      "type": "function"
    },
    {
      "inputs": [
        {
          "internalType": "bytes32",
          "name": "role",
          "type": "bytes32"
        },
        {
          "internalType": "address",
          "name": "account",
          "type": "address"
        }
      ],
      "name": "renounceRole",
      "outputs": [],
      "stateMutability": "nonpayable",
      "type": "function"
    },
    {
      "inputs": [
        {
          "internalType": "bytes32",
          "name": "role",
          "type": "bytes32"
        },
        {
          "internalType": "address",
          "name": "account",
          "type": "address"
        }
      ],
      "name": "revokeRole",
      "outputs": [],
      "stateMutability": "nonpayable",
      "type": "function"
    },
    {
      "inputs": [
        {
          "internalType": "address",
          "name": "user",
          "type": "address"
        },
        {
          "internalType": "string",
          "name": "fieldName",
          "type": "string"
        },
        {
          "internalType": "string",
          "name": "encryptedPayload",
          "type": "string"
        }
      ],
      "name": "storeEncryptedData",
      "outputs": [],
      "stateMutability": "nonpayable",
      "type": "function"
    },
    {
      "inputs": [
        {
          "internalType": "bytes4",
          "name": "interfaceId",
          "type": "bytes4"
        }
      ],
      "name": "supportsInterface",
      "outputs": [
        {
          "internalType": "bool",
          "name": "",
          "type": "bool"
        }
      ],
      "stateMutability": "view",
      "type": "function"
    },
    {
      "inputs": [
        {
          "internalType": "address",
          "name": "user",
          "type": "address"
        },
        {
          "internalType": "bool",
          "name": "consent",
          "type": "bool"
        }
      ],
      "name": "updateConsent",
      "outputs": [],
      "stateMutability": "nonpayable",
      "type": "function"
    },
    {
      "inputs": [
        {
          "internalType": "address",
          "name": "user",
          "type": "address"
        },
        {
          "internalType": "string",
          "name": "ipfsCid",
          "type": "string"
        }
      ],
      "name": "updateIdentity",
      "outputs": [],
      "stateMutability": "nonpayable",
      "type": "function"
    }
  ],
  "bytecode": "0x60806040523480156200001157600080fd5b50604051620019c7380380620019c7833981016040819052620000349162000124565b6200004160008262000074565b6200006d7ffd70517941c75212b0f9013e45c47a37d6d983c5304288c7af285f2ea40cbba78262000074565b5062000156565b62000080828262000084565b5050565b6000828152602081815260408083206001600160a01b038516845290915290205460ff1662000080576000828152602081815260408083206001600160a01b03851684529091529020805460ff19166001179055620000e03390565b6001600160a01b0316816001600160a01b0316837f2f8788117e7eff1d82e926ec794901d17c78024a50270940304540a733656f0d60405160405180910390a45050565b6000602082840312156200013757600080fd5b81516001600160a01b03811681146200014f57600080fd5b9392505050565b61186180620001666000396000f3fe608060405234801561001057600080fd5b50600436106101005760003560e01c80633bd78fe311610097578063a82567d511610066578063a82567d514610254578063b947f84a14610267578063d547741f1461027a578063f3c6a1981461028d57600080fd5b80633bd78fe3146101fb57806390eafd831461020e57806391d1485414610239578063a217fddf1461024c57600080fd5b80632bd0214e116100d35780632bd0214e146101935780632f2ff15d146101b35780632fea7b81146101c657806336568abe146101e857600080fd5b806301ffc9a71461010557806309a7bbb01461012d5780631d953c5b14610142578063248a9ca314610162575b600080fd5b610118610113366004610f9d565b6102a2565b60405190151581526020015b60405180910390f35b61014061013b366004611086565b6102d9565b005b6101556101503660046110fa565b6104fb565b6040516101249190611198565b6101856101703660046111ab565b60009081526020819052604090206001015490565b604051908152602001610124565b6101a66101a13660046111c4565b610630565b60405161012491906111df565b6101406101c1366004611241565b610788565b6101d96101d43660046111c4565b6107b2565b6040516101249392919061126d565b6101406101f6366004611241565b61090d565b6101406102093660046112a5565b61098b565b61011861021c3660046111c4565b6001600160a01b0316600090815260036020526040902054151590565b610118610247366004611241565b610a54565b610185600081565b61014061026236600461132a565b610a7d565b61014061027536600461137d565b610b05565b610140610288366004611241565b610c74565b61018560008051602061180c83398151915281565b60006001600160e01b03198216637965db0b60e01b14806102d357506301ffc9a760e01b6001600160e01b03198316145b92915050565b60008051602061180c8339815191526102f181610c99565b6001600160a01b03848116600090815260016020526040902054166103575760405162461bcd60e51b81526020600482015260176024820152761259195b9d1a5d1e481b9bdd081c9959da5cdd195c9959604a1b60448201526064015b60405180910390fd5b6001600160a01b0384166000908152600260205260409081902090518391906103819086906113fe565b9081526020016040518091039020908161039b91906114a2565b506000805b6001600160a01b03861660009081526003602052604090205481101561046157846040516020016103d191906113fe565b60408051601f1981840301815291815281516020928301206001600160a01b03891660009081526003909352912080548390811061041157610411611562565b9060005260206000200160405160200161042b9190611578565b604051602081830303815290604052805190602001200361044f5760019150610461565b8061045981611604565b9150506103a0565b508061049b576001600160a01b03851660009081526003602090815260408220805460018101825590835291200161049985826114a2565b505b836040516104a991906113fe565b6040518091039020856001600160a01b03167f9491d15473861f8d6bc59a631b391bb8e26341667e3b3a5dc766288a650128ed426040516104ec91815260200190565b60405180910390a35050505050565b6060600061050881610c99565b6001600160a01b03848116600090815260016020526040902054166105695760405162461bcd60e51b81526020600482015260176024820152761259195b9d1a5d1e481b9bdd081c9959da5cdd195c9959604a1b604482015260640161034e565b6001600160a01b0384166000908152600260205260409081902090516105909085906113fe565b908152602001604051809103902080546105a99061141a565b80601f01602080910402602001604051908101604052809291908181526020018280546105d59061141a565b80156106225780601f106105f757610100808354040283529160200191610622565b820191906000526020600020905b81548152906001019060200180831161060557829003601f168201915b505050505091505092915050565b6001600160a01b03818116600090815260016020526040902054606091161515806106615750610661600033610a54565b61069e5760405162461bcd60e51b815260206004820152600e60248201526d139bdd08185d5d1a1bdc9a5e995960921b604482015260640161034e565b6001600160a01b038216600090815260036020908152604080832080548251818502810185019093528083529193909284015b8282101561077d5783829060005260206000200180546106f09061141a565b80601f016020809104026020016040519081016040528092919081815260200182805461071c9061141a565b80156107695780601f1061073e57610100808354040283529160200191610769565b820191906000526020600020905b81548152906001019060200180831161074c57829003601f168201915b5050505050815260200190600101906106d1565b505050509050919050565b6000828152602081905260409020600101546107a381610c99565b6107ad8383610ca6565b505050565b6001600160a01b0381166000908152600160208190526040822060038101549181018054606094859490939291600284019160ff169083906107f39061141a565b80601f016020809104026020016040519081016040528092919081815260200182805461081f9061141a565b801561086c5780601f106108415761010080835404028352916020019161086c565b820191906000526020600020905b81548152906001019060200180831161084f57829003601f168201915b5050505050925081805461087f9061141a565b80601f01602080910402602001604051908101604052809291908181526020018280546108ab9061141a565b80156108f85780601f106108cd576101008083540402835291602001916108f8565b820191906000526020600020905b8154815290600101906020018083116108db57829003601f168201915b50505050509150935093509350509193909250565b6001600160a01b038116331461097d5760405162461bcd60e51b815260206004820152602f60248201527f416363657373436f6e74726f6c3a2063616e206f6e6c792072656e6f756e636560448201526e103937b632b9903337b91039b2b63360891b606482015260840161034e565b6109878282610d2a565b5050565b336001600160a01b03831614806109b557506109b560008051602061180c83398151915233610a54565b6109f25760405162461bcd60e51b815260206004820152600e60248201526d139bdd08185d5d1a1bdc9a5e995960921b604482015260640161034e565b6001600160a01b038216600081815260016020908152604091829020600301805460ff191685151590811790915591519182527f7bdbd5ff3d003672492455cc5133da0a6ac7f911054f30d5f423443f90418c71910160405180910390a25050565b6000918252602082815260408084206001600160a01b0393909316845291905290205460ff1690565b60008051602061180c833981519152610a9581610c99565b6001600160a01b0384166000908152600160205260409020600201610abb83858361161d565b50836001600160a01b03167f8b59ec232bae8e23fe031d1cacdaae5d1c57fb36ad6ca568850b6efbfb0d76b08484604051610af7929190611707565b60405180910390a250505050565b60008051602061180c833981519152610b1d81610c99565b6040518060800160405280876001600160a01b0316815260200186868080601f016020809104026020016040519081016040528093929190818152602001838380828437600092019190915250505090825250604080516020601f87018190048102820181019092528581529181019190869086908190840183828082843760009201829052509385525050600160209384018190526001600160a01b038b811684528185526040909320855181546001600160a01b0319169416939093178355928401519192830191610bf29150826114a2565b5060408201516002820190610c0790826114a2565b50606091909101516003909101805460ff19169115159190911790556040516001600160a01b038716907fdc8c7948efd57970d2239c1bd917b1aacccb1af7b9d31499bb5ed1f80a79252790610c64908890889088908890611723565b60405180910390a2505050505050565b600082815260208190526040902060010154610c8f81610c99565b6107ad8383610d2a565b610ca38133610d8f565b50565b610cb08282610a54565b610987576000828152602081815260408083206001600160a01b03851684529091529020805460ff19166001179055610ce63390565b6001600160a01b0316816001600160a01b0316837f2f8788117e7eff1d82e926ec794901d17c78024a50270940304540a733656f0d60405160405180910390a45050565b610d348282610a54565b15610987576000828152602081815260408083206001600160a01b0385168085529252808320805460ff1916905551339285917ff6391f5c32d9c69d2a47ea670b442974b53935d1edc7fd64eb21e047a839171b9190a45050565b610d998282610a54565b61098757610da681610de8565b610db1836020610dfa565b604051602001610dc2929190611755565b60408051601f198184030181529082905262461bcd60e51b825261034e91600401611198565b60606102d36001600160a01b03831660145b60606000610e098360026117ca565b610e149060026117e1565b67ffffffffffffffff811115610e2c57610e2c610fe3565b6040519080825280601f01601f191660200182016040528015610e56576020820181803683370190505b509050600360fc1b81600081518110610e7157610e71611562565b60200101906001600160f81b031916908160001a905350600f60fb1b81600181518110610ea057610ea0611562565b60200101906001600160f81b031916908160001a9053506000610ec48460026117ca565b610ecf9060016117e1565b90505b6001811115610f47576f181899199a1a9b1b9c1cb0b131b232b360811b85600f1660108110610f0357610f03611562565b1a60f81b828281518110610f1957610f19611562565b60200101906001600160f81b031916908160001a90535060049490941c93610f40816117f4565b9050610ed2565b508315610f965760405162461bcd60e51b815260206004820181905260248201527f537472696e67733a20686578206c656e67746820696e73756666696369656e74604482015260640161034e565b9392505050565b600060208284031215610faf57600080fd5b81356001600160e01b031981168114610f9657600080fd5b80356001600160a01b0381168114610fde57600080fd5b919050565b634e487b7160e01b600052604160045260246000fd5b600082601f83011261100a57600080fd5b813567ffffffffffffffff8082111561102557611025610fe3565b604051601f8301601f19908116603f0116810190828211818310171561104d5761104d610fe3565b8160405283815286602085880101111561106657600080fd5b836020870160208301376000602085830101528094505050505092915050565b60008060006060848603121561109b57600080fd5b6110a484610fc7565b9250602084013567ffffffffffffffff808211156110c157600080fd5b6110cd87838801610ff9565b935060408601359150808211156110e357600080fd5b506110f086828701610ff9565b9150509250925092565b6000806040838503121561110d57600080fd5b61111683610fc7565b9150602083013567ffffffffffffffff81111561113257600080fd5b61113e85828601610ff9565b9150509250929050565b60005b8381101561116357818101518382015260200161114b565b50506000910152565b60008151808452611184816020860160208601611148565b601f01601f19169290920160200192915050565b602081526000610f96602083018461116c565b6000602082840312156111bd57600080fd5b5035919050565b6000602082840312156111d657600080fd5b610f9682610fc7565b6000602080830181845280855180835260408601915060408160051b870101925083870160005b8281101561123457603f1988860301845261122285835161116c565b94509285019290850190600101611206565b5092979650505050505050565b6000806040838503121561125457600080fd5b8235915061126460208401610fc7565b90509250929050565b606081526000611280606083018661116c565b8281036020840152611292818661116c565b9150508215156040830152949350505050565b600080604083850312156112b857600080fd5b6112c183610fc7565b9150602083013580151581146112d657600080fd5b809150509250929050565b60008083601f8401126112f357600080fd5b50813567ffffffffffffffff81111561130b57600080fd5b60208301915083602082850101111561132357600080fd5b9250929050565b60008060006040848603121561133f57600080fd5b61134884610fc7565b9250602084013567ffffffffffffffff81111561136457600080fd5b611370868287016112e1565b9497909650939450505050565b60008060008060006060868803121561139557600080fd5b61139e86610fc7565b9450602086013567ffffffffffffffff808211156113bb57600080fd5b6113c789838a016112e1565b909650945060408801359150808211156113e057600080fd5b506113ed888289016112e1565b969995985093965092949392505050565b60008251611410818460208701611148565b9190910192915050565b600181811c9082168061142e57607f821691505b60208210810361144e57634e487b7160e01b600052602260045260246000fd5b50919050565b601f8211156107ad57600081815260208120601f850160051c8101602086101561147b5750805b601f850160051c820191505b8181101561149a57828155600101611487565b505050505050565b815167ffffffffffffffff8111156114bc576114bc610fe3565b6114d0816114ca845461141a565b84611454565b602080601f83116001811461150557600084156114ed5750858301515b600019600386901b1c1916600185901b17855561149a565b600085815260208120601f198616915b8281101561153457888601518255948401946001909101908401611515565b50858210156115525787850151600019600388901b60f8161c191681555b5050505050600190811b01905550565b634e487b7160e01b600052603260045260246000fd5b60008083546115868161141a565b6001828116801561159e57600181146115b3576115e2565b60ff19841687528215158302870194506115e2565b8760005260208060002060005b858110156115d95781548a8201529084019082016115c0565b50505082870194505b50929695505050505050565b634e487b7160e01b600052601160045260246000fd5b600060018201611616576116166115ee565b5060010190565b67ffffffffffffffff83111561163557611635610fe3565b61164983611643835461141a565b83611454565b6000601f84116001811461167d57600085156116655750838201355b600019600387901b1c1916600186901b1783556116d7565b600083815260209020601f19861690835b828110156116ae578685013582556020948501946001909201910161168e565b50868210156116cb5760001960f88860031b161c19848701351681555b505060018560011b0183555b5050505050565b81835281816020850137506000828201602090810191909152601f909101601f19169091010190565b60208152600061171b6020830184866116de565b949350505050565b6040815260006117376040830186886116de565b828103602084015261174a8185876116de565b979650505050505050565b7f416363657373436f6e74726f6c3a206163636f756e742000000000000000000081526000835161178d816017850160208801611148565b7001034b99036b4b9b9b4b733903937b6329607d1b60179184019182015283516117be816028840160208801611148565b01602801949350505050565b80820281158282048414176102d3576102d36115ee565b808201808211156102d3576102d36115ee565b600081611803576118036115ee565b50600019019056fefd70517941c75212b0f9013e45c47a37d6d983c5304288c7af285f2ea40cbba7a264697066735822122027ecb97c36bc9471b03b3025deeea5205770bc4908d50492aabf06d69fb09ab164736f6c63430008140033",
  "linkReferences": {},
  "deployedLinkReferences": {}
}