{
  "_format": "hh-sol-artifact-1",
  "contractName": "TeleporterMock",
  "sourceName": "contracts/TeleporterMock.sol",
  "abi": [
    {
      "anonymous": false,
      "inputs": [
        {
          "indexed": false,
          "internalType": "uint256",
          "name": "destChainId",
          "type": "uint256"
        },
        {
          "indexed": false,
          "internalType": "bytes",
          "name": "payload",
          "type": "bytes"
        },
        {
          "indexed": true,
          "internalType": "bytes32",
          "name": "messageId",
          "type": "bytes32"
        }
      ],
      "name": "MessageSent",
      "type": "event"
    },
    {
      "inputs": [
        {
          "internalType": "uint256",
          "name": "destinationChainId",
          "type": "uint256"
        },
        {
          "internalType": "bytes",
          "name": "payload",
          "type": "bytes"
        }
      ],
      "name": "_deliver",
      "outputs": [
        {
          "internalType": "bool",
          "name": "",
          "type": "bool"
        }
      ],
      "stateMutability": "nonpayable",
      "type": "function"
    },
    {
      "inputs": [
        {
          "internalType": "uint256",
          "name": "destinationChainId",
          "type": "uint256"
        },
        {
          "internalType": "bytes",
          "name": "payload",
          "type": "bytes"
        }
      ],
      "name": "sendMessage",
      "outputs": [
        {
          "internalType": "bytes32",
          "name": "",
          "type": "bytes32"
        }
      ],
      "stateMutability": "nonpayable",
      "type": "function"
    }
  ],
  "bytecode": "0x608060405234801561001057600080fd5b506104b9806100206000396000f3fe608060405234801561001057600080fd5b50600436106100365760003560e01c80637bdbfa571461003b578063e289adcd14610063575b600080fd5b61004e61004936600461021b565b610084565b60405190151581526020015b60405180910390f35b61007661007136600461021b565b61013a565b60405190815260200161005a565b60008080610094848601866102ad565b915091506000826001600160a01b0316826040516024016100b591906103a1565b60408051601f198184030181529181526020820180516001600160e01b0316635751787d60e11b179052516100ea91906103d4565b6000604051808303816000865af19150503d8060008114610127576040519150601f19603f3d011682016040523d82523d6000602084013e61012c565b606091505b509098975050505050505050565b60008033858585426040516020016101569594939291906103f0565b604051602081830303815290604052805190602001209050807f8c285ddf29d12ce273ef104a7e18b6150aaf9a1f808b7405ee59c9bb50e73b108686866040516101a293929190610424565b60405180910390a2604051637bdbfa5760e01b81523090637bdbfa57906101d190889088908890600401610424565b6020604051808303816000875af192505050801561020c575060408051601f3d908101601f191682019092526102099181019061045a565b60015b1561021357505b949350505050565b60008060006040848603121561023057600080fd5b83359250602084013567ffffffffffffffff8082111561024f57600080fd5b818601915086601f83011261026357600080fd5b81358181111561027257600080fd5b87602082850101111561028457600080fd5b6020830194508093505050509250925092565b634e487b7160e01b600052604160045260246000fd5b600080604083850312156102c057600080fd5b82356001600160a01b03811681146102d757600080fd5b9150602083013567ffffffffffffffff808211156102f457600080fd5b818501915085601f83011261030857600080fd5b81358181111561031a5761031a610297565b604051601f8201601f19908116603f0116810190838211818310171561034257610342610297565b8160405282815288602084870101111561035b57600080fd5b8260208601602083013760006020848301015280955050505050509250929050565b60005b83811015610398578181015183820152602001610380565b50506000910152565b60208152600082518060208401526103c081604085016020870161037d565b601f01601f19169190910160400192915050565b600082516103e681846020870161037d565b9190910192915050565b6bffffffffffffffffffffffff198660601b1681528460148201528284603483013760349201918201526054019392505050565b83815260406020820152816040820152818360608301376000818301606090810191909152601f909201601f1916010192915050565b60006020828403121561046c57600080fd5b8151801515811461047c57600080fd5b939250505056fea2646970667358221220b90bee6cd189156fcf3e83d330b771bd8ffc10e829ed12b33156fc78cb8f551864736f6c63430008140033",
  "linkReferences": {},
  "deployedLinkReferences": {}
}