{
  "_format": "hh-sol-artifact-1",
  "contractName": "VerificationAttestor",
  "sourceName": "contracts/VerificationAttestor.sol",
  "abi": [
    {
      "inputs": [
        {
          "internalType": "address",
          "name": "admin",
          "type": "address"
        },
        {
          "internalType": "address",
          "name": "_reputationOracle",
          "type": "address"
        }
      ],
      "stateMutability": "nonpayable",
      "type": "constructor"
    },
    {
      "anonymous": false,
      "inputs": [
        {
          "indexed": true,
          "internalType": "bytes32",
          "name": "id",
          "type": "bytes32"
        },
        {
          "indexed": true,
          "internalType": "address",
          "name": "user",
          "type": "address"
        },
        {
          "indexed": false,
          "internalType": "uint8",
          "name": "level",
          "type": "uint8"
        },
        {
          "indexed": false,
          "internalType": "address",
          "name": "verifier",
          "type": "address"
        }
      ],
      "name": "AttestationCreated",
      "type": "event"
    },
    {
      "anonymous": false,
      "inputs": [
        {
          "indexed": true,
          "internalType": "bytes32",
          "name": "role",
          "type": "bytes32"
        },
        {
          "indexed": true,
          "internalType": "bytes32",
          "name": "previousAdminRole",
          "type": "bytes32"
        },
        {
          "indexed": true,
          "internalType": "bytes32",
          "name": "newAdminRole",
          "type": "bytes32"
        }
      ],
      "name": "RoleAdminChanged",
      "type": "event"
    },
    {
      "anonymous": false,
      "inputs": [
        {
          "indexed": true,
          "internalType": "bytes32",
          "name": "role",
          "type": "bytes32"
        },
        {
          "indexed": true,
          "internalType": "address",
          "name": "account",
          "type": "address"
        },
        {
          "indexed": true,
          "internalType": "address",
          "name": "sender",
          "type": "address"
        }
      ],
      "name": "RoleGranted",
      "type": "event"
    },
    {
      "anonymous": false,
      "inputs": [
        {
          "indexed": true,
          "internalType": "bytes32",
          "name": "role",
          "type": "bytes32"
        },
        {
          "indexed": true,
          "internalType": "address",
          "name": "account",
          "type": "address"
        },
        {
          "indexed": true,
          "internalType": "address",
          "name": "sender",
          "type": "address"
        }
      ],
      "name": "RoleRevoked",
      "type": "event"
    },
    {
      "inputs": [],
      "name": "DEFAULT_ADMIN_ROLE",
      "outputs": [
        {
          "internalType": "bytes32",
          "name": "",
          "type": "bytes32"
        }
      ],
      "stateMutability": "view",
      "type": "function"
    },
    {
      "inputs": [],
      "name": "VERIFIER_ROLE",
      "outputs": [
        {
          "internalType": "bytes32",
          "name": "",
          "type": "bytes32"
        }
      ],
      "stateMutability": "view",
      "type": "function"
    },
    {
      "inputs": [
        {
          "internalType": "bytes32",
          "name": "",
          "type": "bytes32"
        }
      ],
      "name": "attestations",
      "outputs": [
        {
          "internalType": "bytes32",
          "name": "id",
          "type": "bytes32"
        },
        {
          "internalType": "address",
          "name": "user",
          "type": "address"
        },
        {
          "internalType": "uint8",
          "name": "level",
          "type": "uint8"
        },
        {
          "internalType": "string",
          "name": "metadataCID",
          "type": "string"
        },
        {
          "internalType": "address",
          "name": "verifier",
          "type": "address"
        }
      ],
      "stateMutability": "view",
      "type": "function"
    },
    {
      "inputs": [
        {
          "internalType": "address",
          "name": "user",
          "type": "address"
        },
        {
          "internalType": "bytes32",
          "name": "attHash",
          "type": "bytes32"
        },
        {
          "internalType": "uint8",
          "name": "level",
          "type": "uint8"
        },
        {
          "internalType": "string",
          "name": "metadataCID",
          "type": "string"
        }
      ],
      "name": "createAttestation",
      "outputs": [
        {
          "internalType": "bytes32",
          "name": "",
          "type": "bytes32"
        }
      ],
      "stateMutability": "nonpayable",
      "type": "function"
    },
    {
      "inputs": [
        {
          "internalType": "bytes32",
          "name": "role",
          "type": "bytes32"
        }
      ],
      "name": "getRoleAdmin",
      "outputs": [
        {
          "internalType": "bytes32",
          "name": "",
          "type": "bytes32"
        }
      ],
      "stateMutability": "view",
      "type": "function"
    },
    {
      "inputs": [
        {
          "internalType": "bytes32",
          "name": "role",
          "type": "bytes32"
        },
        {
          "internalType": "address",
          "name": "account",
          "type": "address"
        }
      ],
      "name": "grantRole",
      "outputs": [],
      "stateMutability": "nonpayable",
      "type": "function"
    },
    {
      "inputs": [
        {
          "internalType": "bytes32",
          "name": "role",
          "type": "bytes32"
        },
        {
          "internalType": "address",
          "name": "account",
          "type": "address"
        }
      ],
      "name": "hasRole",
      "outputs": [
        {
          "internalType": "bool",
          "name": "",
          "type": "bool"
        }
      ],
      "stateMutability": "view",
      "type": "function"
    },
    {
      "inputs": [
        {
          "internalType": "bytes32",
          "name": "role",
          "type": "bytes32"
        },
        {
          "internalType": "address",
          "name": "account",
          "type": "address"
        }
      ],
      "name": "renounceRole",
      "outputs": [],
      "stateMutability": "nonpayable",
      "type": "function"
    },
    {
      "inputs": [],
      "name": "reputationOracle",
      "outputs": [
        {
          "internalType": "address",
          "name": "",
          "type": "address"
        }
      ],
      "stateMutability": "view",
      "type": "function"
    },
    {
      "inputs": [
        {
          "internalType": "bytes32",
          "name": "role",
          "type": "bytes32"
        },
        {
          "internalType": "address",
          "name": "account",
          "type": "address"
        }
      ],
      "name": "revokeRole",
      "outputs": [],
      "stateMutability": "nonpayable",
      "type": "function"
    },
    {
      "inputs": [
        {
          "internalType": "bytes4",
          "name": "interfaceId",
          "type": "bytes4"
        }
      ],
      "name": "supportsInterface",
      "outputs": [
        {
          "internalType": "bool",
          "name": "",
          "type": "bool"
        }
      ],
      "stateMutability": "view",
      "type": "function"
    }
  ],
  "bytecode": "0x608060405234801561001057600080fd5b5060405162000ef838038062000ef883398101604081905261003191610154565b61003c60008361008c565b6100667f0ce23c3e399818cfee81a7ab0880f714e53d7672b08df0fa62f2843416e1ea098361008c565b600280546001600160a01b0319166001600160a01b039290921691909117905550610187565b610096828261009a565b5050565b6000828152602081815260408083206001600160a01b038516845290915290205460ff16610096576000828152602081815260408083206001600160a01b03851684529091529020805460ff191660011790556100f43390565b6001600160a01b0316816001600160a01b0316837f2f8788117e7eff1d82e926ec794901d17c78024a50270940304540a733656f0d60405160405180910390a45050565b80516001600160a01b038116811461014f57600080fd5b919050565b6000806040838503121561016757600080fd5b61017083610138565b915061017e60208401610138565b90509250929050565b610d6180620001976000396000f3fe608060405234801561001057600080fd5b50600436106100a95760003560e01c8063940992a311610071578063940992a314610142578063a217fddf14610166578063d16a6d411461016e578063d547741f14610181578063e7705db614610194578063fad844c1146101bb57600080fd5b806301ffc9a7146100ae578063248a9ca3146100d65780632f2ff15d1461010757806336568abe1461011c57806391d148541461012f575b600080fd5b6100c16100bc366004610914565b6101e6565b60405190151581526020015b60405180910390f35b6100f96100e436600461093e565b60009081526020819052604090206001015490565b6040519081526020016100cd565b61011a610115366004610973565b61021d565b005b61011a61012a366004610973565b610247565b6100c161013d366004610973565b6102ca565b61015561015036600461093e565b6102f3565b6040516100cd9594939291906109ef565b6100f9600081565b6100f961017c366004610a35565b6103c4565b61011a61018f366004610973565b6105eb565b6100f97f0ce23c3e399818cfee81a7ab0880f714e53d7672b08df0fa62f2843416e1ea0981565b6002546101ce906001600160a01b031681565b6040516001600160a01b0390911681526020016100cd565b60006001600160e01b03198216637965db0b60e01b148061021757506301ffc9a760e01b6001600160e01b03198316145b92915050565b60008281526020819052604090206001015461023881610610565b610242838361061d565b505050565b6001600160a01b03811633146102bc5760405162461bcd60e51b815260206004820152602f60248201527f416363657373436f6e74726f6c3a2063616e206f6e6c792072656e6f756e636560448201526e103937b632b9903337b91039b2b63360891b60648201526084015b60405180910390fd5b6102c682826106a1565b5050565b6000918252602082815260408084206001600160a01b0393909316845291905290205460ff1690565b60016020819052600091825260409091208054918101546002820180546001600160a01b03831693600160a01b90930460ff1692919061033290610ad8565b80601f016020809104026020016040519081016040528092919081815260200182805461035e90610ad8565b80156103ab5780601f10610380576101008083540402835291602001916103ab565b820191906000526020600020905b81548152906001019060200180831161038e57829003601f168201915b505050600390930154919250506001600160a01b031685565b60007f0ce23c3e399818cfee81a7ab0880f714e53d7672b08df0fa62f2843416e1ea096103f081610610565b600086428960405160200161042a93929190928352602083019190915260601b6bffffffffffffffffffffffff1916604082015260540190565b6040516020818303038152906040528051906020012090506040518060a00160405280828152602001896001600160a01b031681526020018760ff16815260200186868080601f0160208091040260200160405190810160405280939291908181526020018383808284376000920182905250938552505033602093840152508381526001808352604091829020845181559284015190830180549285015160ff16600160a01b026001600160a81b03199093166001600160a01b039290921691909117919091179055606082015160028201906105089082610b76565b5060809190910151600390910180546001600160a01b0319166001600160a01b039283161790556040805160ff89168152336020820152918a169183917fe52e0de781b679e8114fc117a8f49a9f48e5935c3e7b2cd7dd95d1b5eb3834ea910160405180910390a36002546001600160a01b0316156105e057600254604051631bdb0dad60e31b8152336004820152600160248201526001600160a01b039091169063ded86d6890604401600060405180830381600087803b1580156105cd57600080fd5b505af19250505080156105de575060015b505b979650505050505050565b60008281526020819052604090206001015461060681610610565b61024283836106a1565b61061a8133610706565b50565b61062782826102ca565b6102c6576000828152602081815260408083206001600160a01b03851684529091529020805460ff1916600117905561065d3390565b6001600160a01b0316816001600160a01b0316837f2f8788117e7eff1d82e926ec794901d17c78024a50270940304540a733656f0d60405160405180910390a45050565b6106ab82826102ca565b156102c6576000828152602081815260408083206001600160a01b0385168085529252808320805460ff1916905551339285917ff6391f5c32d9c69d2a47ea670b442974b53935d1edc7fd64eb21e047a839171b9190a45050565b61071082826102ca565b6102c65761071d8161075f565b610728836020610771565b604051602001610739929190610c36565b60408051601f198184030181529082905262461bcd60e51b82526102b391600401610cab565b60606102176001600160a01b03831660145b60606000610780836002610cd4565b61078b906002610ceb565b67ffffffffffffffff8111156107a3576107a3610b12565b6040519080825280601f01601f1916602001820160405280156107cd576020820181803683370190505b509050600360fc1b816000815181106107e8576107e8610cfe565b60200101906001600160f81b031916908160001a905350600f60fb1b8160018151811061081757610817610cfe565b60200101906001600160f81b031916908160001a905350600061083b846002610cd4565b610846906001610ceb565b90505b60018111156108be576f181899199a1a9b1b9c1cb0b131b232b360811b85600f166010811061087a5761087a610cfe565b1a60f81b82828151811061089057610890610cfe565b60200101906001600160f81b031916908160001a90535060049490941c936108b781610d14565b9050610849565b50831561090d5760405162461bcd60e51b815260206004820181905260248201527f537472696e67733a20686578206c656e67746820696e73756666696369656e7460448201526064016102b3565b9392505050565b60006020828403121561092657600080fd5b81356001600160e01b03198116811461090d57600080fd5b60006020828403121561095057600080fd5b5035919050565b80356001600160a01b038116811461096e57600080fd5b919050565b6000806040838503121561098657600080fd5b8235915061099660208401610957565b90509250929050565b60005b838110156109ba5781810151838201526020016109a2565b50506000910152565b600081518084526109db81602086016020860161099f565b601f01601f19169290920160200192915050565b858152600060018060a01b03808716602084015260ff8616604084015260a06060840152610a2060a08401866109c3565b91508084166080840152509695505050505050565b600080600080600060808688031215610a4d57600080fd5b610a5686610957565b945060208601359350604086013560ff81168114610a7357600080fd5b9250606086013567ffffffffffffffff80821115610a9057600080fd5b818801915088601f830112610aa457600080fd5b813581811115610ab357600080fd5b896020828501011115610ac557600080fd5b9699959850939650602001949392505050565b600181811c90821680610aec57607f821691505b602082108103610b0c57634e487b7160e01b600052602260045260246000fd5b50919050565b634e487b7160e01b600052604160045260246000fd5b601f82111561024257600081815260208120601f850160051c81016020861015610b4f5750805b601f850160051c820191505b81811015610b6e57828155600101610b5b565b505050505050565b815167ffffffffffffffff811115610b9057610b90610b12565b610ba481610b9e8454610ad8565b84610b28565b602080601f831160018114610bd95760008415610bc15750858301515b600019600386901b1c1916600185901b178555610b6e565b600085815260208120601f198616915b82811015610c0857888601518255948401946001909101908401610be9565b5085821015610c265787850151600019600388901b60f8161c191681555b5050505050600190811b01905550565b7f416363657373436f6e74726f6c3a206163636f756e7420000000000000000000815260008351610c6e81601785016020880161099f565b7001034b99036b4b9b9b4b733903937b6329607d1b6017918401918201528351610c9f81602884016020880161099f565b01602801949350505050565b60208152600061090d60208301846109c3565b634e487b7160e01b600052601160045260246000fd5b808202811582820484141761021757610217610cbe565b8082018082111561021757610217610cbe565b634e487b7160e01b600052603260045260246000fd5b600081610d2357610d23610cbe565b50600019019056fea2646970667358221220627167a8319f7ac2b0619648931cad2e69e2f537f4ca315dd0fc4966120e290b64736f6c63430008140033",
  "linkReferences": {},
  "deployedLinkReferences": {}
}