{
  "_format": "hh-sol-artifact-1",
  "contractName": "CrossChainRouter",
  "sourceName": "contracts/CrossChainRouter.sol",
  "abi": [
    {
      "inputs": [
        {
          "internalType": "address",
          "name": "teleporterAddr",
          "type": "address"
        },
        {
          "internalType": "address",
          "name": "admin",
          "type": "address"
        }
      ],
      "stateMutability": "nonpayable",
      "type": "constructor"
    },
    {
      "anonymous": false,
      "inputs": [
        {
          "indexed": true,
          "internalType": "bytes32",
          "name": "role",
          "type": "bytes32"
        },
        {
          "indexed": true,
          "internalType": "bytes32",
          "name": "previousAdminRole",
          "type": "bytes32"
        },
        {
          "indexed": true,
          "internalType": "bytes32",
          "name": "newAdminRole",
          "type": "bytes32"
        }
      ],
      "name": "RoleAdminChanged",
      "type": "event"
    },
    {
      "anonymous": false,
      "inputs": [
        {
          "indexed": true,
          "internalType": "bytes32",
          "name": "role",
          "type": "bytes32"
        },
        {
          "indexed": true,
          "internalType": "address",
          "name": "account",
          "type": "address"
        },
        {
          "indexed": true,
          "internalType": "address",
          "name": "sender",
          "type": "address"
        }
      ],
      "name": "RoleGranted",
      "type": "event"
    },
    {
      "anonymous": false,
      "inputs": [
        {
          "indexed": true,
          "internalType": "bytes32",
          "name": "role",
          "type": "bytes32"
        },
        {
          "indexed": true,
          "internalType": "address",
          "name": "account",
          "type": "address"
        },
        {
          "indexed": true,
          "internalType": "address",
          "name": "sender",
          "type": "address"
        }
      ],
      "name": "RoleRevoked",
      "type": "event"
    },
    {
      "anonymous": false,
      "inputs": [
        {
          "indexed": true,
          "internalType": "bytes32",
          "name": "requestId",
          "type": "bytes32"
        },
        {
          "indexed": true,
          "internalType": "address",
          "name": "user",
          "type": "address"
        },
        {
          "indexed": false,
          "internalType": "uint256",
          "name": "destChainId",
          "type": "uint256"
        }
      ],
      "name": "VerificationRequested",
      "type": "event"
    },
    {
      "anonymous": false,
      "inputs": [
        {
          "indexed": true,
          "internalType": "bytes32",
          "name": "requestId",
          "type": "bytes32"
        },
        {
          "indexed": false,
          "internalType": "bool",
          "name": "verified",
          "type": "bool"
        },
        {
          "indexed": false,
          "internalType": "uint8",
          "name": "level",
          "type": "uint8"
        }
      ],
      "name": "VerificationResponse",
      "type": "event"
    },
    {
      "inputs": [],
      "name": "DEFAULT_ADMIN_ROLE",
      "outputs": [
        {
          "internalType": "bytes32",
          "name": "",
          "type": "bytes32"
        }
      ],
      "stateMutability": "view",
      "type": "function"
    },
    {
      "inputs": [],
      "name": "SENDER_ROLE",
      "outputs": [
        {
          "internalType": "bytes32",
          "name": "",
          "type": "bytes32"
        }
      ],
      "stateMutability": "view",
      "type": "function"
    },
    {
      "inputs": [
        {
          "internalType": "bytes32",
          "name": "role",
          "type": "bytes32"
        }
      ],
      "name": "getRoleAdmin",
      "outputs": [
        {
          "internalType": "bytes32",
          "name": "",
          "type": "bytes32"
        }
      ],
      "stateMutability": "view",
      "type": "function"
    },
    {
      "inputs": [
        {
          "internalType": "bytes32",
          "name": "role",
          "type": "bytes32"
        },
        {
          "internalType": "address",
          "name": "account",
          "type": "address"
        }
      ],
      "name": "grantRole",
      "outputs": [],
      "stateMutability": "nonpayable",
      "type": "function"
    },
    {
      "inputs": [
        {
          "internalType": "bytes",
          "name": "payload",
          "type": "bytes"
        }
      ],
      "name": "handleIncomingMessage",
      "outputs": [],
      "stateMutability": "nonpayable",
      "type": "function"
    },
    {
      "inputs": [
        {
          "internalType": "bytes32",
          "name": "role",
          "type": "bytes32"
        },
        {
          "internalType": "address",
          "name": "account",
          "type": "address"
        }
      ],
      "name": "hasRole",
      "outputs": [
        {
          "internalType": "bool",
          "name": "",
          "type": "bool"
        }
      ],
      "stateMutability": "view",
      "type": "function"
    },
    {
      "inputs": [
        {
          "internalType": "bytes32",
          "name": "role",
          "type": "bytes32"
        },
        {
          "internalType": "address",
          "name": "account",
          "type": "address"
        }
      ],
      "name": "renounceRole",
      "outputs": [],
      "stateMutability": "nonpayable",
      "type": "function"
    },
    {
      "inputs": [
        {
          "internalType": "uint256",
          "name": "destChainId",
          "type": "uint256"
        },
        {
          "internalType": "address",
          "name": "user",
          "type": "address"
        },
        {
          "internalType": "uint8",
          "name": "requestedLevel",
          "type": "uint8"
        }
      ],
      "name": "requestVerification",
      "outputs": [
        {
          "internalType": "bytes32",
          "name": "",
          "type": "bytes32"
        }
      ],
      "stateMutability": "nonpayable",
      "type": "function"
    },
    {
      "inputs": [
        {
          "internalType": "bytes32",
          "name": "role",
          "type": "bytes32"
        },
        {
          "internalType": "address",
          "name": "account",
          "type": "address"
        }
      ],
      "name": "revokeRole",
      "outputs": [],
      "stateMutability": "nonpayable",
      "type": "function"
    },
    {
      "inputs": [
        {
          "internalType": "bytes4",
          "name": "interfaceId",
          "type": "bytes4"
        }
      ],
      "name": "supportsInterface",
      "outputs": [
        {
          "internalType": "bool",
          "name": "",
          "type": "bool"
        }
      ],
      "stateMutability": "view",
      "type": "function"
    },
    {
      "inputs": [],
      "name": "teleporter",
      "outputs": [
        {
          "internalType": "contract ITeleporter",
          "name": "",
          "type": "address"
        }
      ],
      "stateMutability": "view",
      "type": "function"
    }
  ],
  "bytecode": "0x608060405234801561001057600080fd5b50604051610d00380380610d0083398101604081905261002f9161014e565b600180546001600160a01b0319166001600160a01b038416179055610055600082610086565b61007f7f76d12de99ad2ca162840505be9b657c2e7a650cc3ee0284048f3f9def3c1adf282610086565b5050610181565b6100908282610094565b5050565b6000828152602081815260408083206001600160a01b038516845290915290205460ff16610090576000828152602081815260408083206001600160a01b03851684529091529020805460ff191660011790556100ee3390565b6001600160a01b0316816001600160a01b0316837f2f8788117e7eff1d82e926ec794901d17c78024a50270940304540a733656f0d60405160405180910390a45050565b80516001600160a01b038116811461014957600080fd5b919050565b6000806040838503121561016157600080fd5b61016a83610132565b915061017860208401610132565b90509250929050565b610b70806101906000396000f3fe608060405234801561001057600080fd5b50600436106100a95760003560e01c8063a217fddf11610071578063a217fddf14610142578063a8300c0a1461014a578063aea2f0fa1461015d578063b3ff9f4914610170578063c42ef38c1461019b578063d547741f146101c257600080fd5b806301ffc9a7146100ae578063248a9ca3146100d65780632f2ff15d1461010757806336568abe1461011c57806391d148541461012f575b600080fd5b6100c16100bc36600461080b565b6101d5565b60405190151581526020015b60405180910390f35b6100f96100e4366004610835565b60009081526020819052604090206001015490565b6040519081526020016100cd565b61011a61011536600461086a565b61020c565b005b61011a61012a36600461086a565b610236565b6100c161013d36600461086a565b6102b9565b6100f9600081565b6100f96101583660046108a7565b6102e2565b61011a61016b3660046108e3565b610484565b600154610183906001600160a01b031681565b6040516001600160a01b0390911681526020016100cd565b6100f97f76d12de99ad2ca162840505be9b657c2e7a650cc3ee0284048f3f9def3c1adf281565b61011a6101d036600461086a565b6104e2565b60006001600160e01b03198216637965db0b60e01b148061020657506301ffc9a760e01b6001600160e01b03198316145b92915050565b60008281526020819052604090206001015461022781610507565b6102318383610514565b505050565b6001600160a01b03811633146102ab5760405162461bcd60e51b815260206004820152602f60248201527f416363657373436f6e74726f6c3a2063616e206f6e6c792072656e6f756e636560448201526e103937b632b9903337b91039b2b63360891b60648201526084015b60405180910390fd5b6102b58282610598565b5050565b6000918252602082815260408084206001600160a01b0393909316845291905290205460ff1690565b60007f76d12de99ad2ca162840505be9b657c2e7a650cc3ee0284048f3f9def3c1adf261030e81610507565b60408051606086901b6bffffffffffffffffffffffff19166020808301919091524260348301526054820188905260f886901b6001600160f81b0319166074830152825160558184030181526075830184528051910120609582018190526001600160a01b03871660b583015260ff861660d5808401919091528351808403909101815260f5830190935291906000906103af9030908490610115016109a5565b60408051601f198184030181529082905260015463e289adcd60e01b83529092506001600160a01b03169063e289adcd906103f0908b9085906004016109d1565b6020604051808303816000875af115801561040f573d6000803e3d6000fd5b505050506040513d601f19601f8201168201806040525081019061043391906109ea565b50866001600160a01b0316837faf92676e6ce91b92427009a49e22fa6d354ed418db8d0965bca4232dcf3e658f8a60405161047091815260200190565b60405180910390a350909695505050505050565b6000808061049484860186610a03565b60408051831515815260ff83166020820152939650919450925084917f1b363a1a6f308a682158e5b930fef1690f751ff351479f0a28fa3108259c2c06910160405180910390a25050505050565b6000828152602081905260409020600101546104fd81610507565b6102318383610598565b61051181336105fd565b50565b61051e82826102b9565b6102b5576000828152602081815260408083206001600160a01b03851684529091529020805460ff191660011790556105543390565b6001600160a01b0316816001600160a01b0316837f2f8788117e7eff1d82e926ec794901d17c78024a50270940304540a733656f0d60405160405180910390a45050565b6105a282826102b9565b156102b5576000828152602081815260408083206001600160a01b0385168085529252808320805460ff1916905551339285917ff6391f5c32d9c69d2a47ea670b442974b53935d1edc7fd64eb21e047a839171b9190a45050565b61060782826102b9565b6102b55761061481610656565b61061f836020610668565b604051602001610630929190610a2f565b60408051601f198184030181529082905262461bcd60e51b82526102a291600401610aa4565b60606102066001600160a01b03831660145b60606000610677836002610acd565b610682906002610ae4565b67ffffffffffffffff81111561069a5761069a610af7565b6040519080825280601f01601f1916602001820160405280156106c4576020820181803683370190505b509050600360fc1b816000815181106106df576106df610b0d565b60200101906001600160f81b031916908160001a905350600f60fb1b8160018151811061070e5761070e610b0d565b60200101906001600160f81b031916908160001a9053506000610732846002610acd565b61073d906001610ae4565b90505b60018111156107b5576f181899199a1a9b1b9c1cb0b131b232b360811b85600f166010811061077157610771610b0d565b1a60f81b82828151811061078757610787610b0d565b60200101906001600160f81b031916908160001a90535060049490941c936107ae81610b23565b9050610740565b5083156108045760405162461bcd60e51b815260206004820181905260248201527f537472696e67733a20686578206c656e67746820696e73756666696369656e7460448201526064016102a2565b9392505050565b60006020828403121561081d57600080fd5b81356001600160e01b03198116811461080457600080fd5b60006020828403121561084757600080fd5b5035919050565b80356001600160a01b038116811461086557600080fd5b919050565b6000806040838503121561087d57600080fd5b8235915061088d6020840161084e565b90509250929050565b803560ff8116811461086557600080fd5b6000806000606084860312156108bc57600080fd5b833592506108cc6020850161084e565b91506108da60408501610896565b90509250925092565b600080602083850312156108f657600080fd5b823567ffffffffffffffff8082111561090e57600080fd5b818501915085601f83011261092257600080fd5b81358181111561093157600080fd5b86602082850101111561094357600080fd5b60209290920196919550909350505050565b60005b83811015610970578181015183820152602001610958565b50506000910152565b60008151808452610991816020860160208601610955565b601f01601f19169290920160200192915050565b6001600160a01b03831681526040602082018190526000906109c990830184610979565b949350505050565b8281526040602082015260006109c96040830184610979565b6000602082840312156109fc57600080fd5b5051919050565b600080600060608486031215610a1857600080fd5b83359250602084013580151581146108cc57600080fd5b7f416363657373436f6e74726f6c3a206163636f756e7420000000000000000000815260008351610a67816017850160208801610955565b7001034b99036b4b9b9b4b733903937b6329607d1b6017918401918201528351610a98816028840160208801610955565b01602801949350505050565b6020815260006108046020830184610979565b634e487b7160e01b600052601160045260246000fd5b808202811582820484141761020657610206610ab7565b8082018082111561020657610206610ab7565b634e487b7160e01b600052604160045260246000fd5b634e487b7160e01b600052603260045260246000fd5b600081610b3257610b32610ab7565b50600019019056fea264697066735822122026d8addb3da23314795b5df2b031fb019c868daae15bb1ee871844aa849cc38564736f6c63430008140033",
  "linkReferences": {},
  "deployedLinkReferences": {}
}