{
  "_format": "hh-sol-artifact-1",
  "contractName": "ReputationOracle",
  "sourceName": "contracts/ReputationOracle.sol",
  "abi": [
    {
      "inputs": [
        {
          "internalType": "address",
          "name": "admin",
          "type": "address"
        }
      ],
      "stateMutability": "nonpayable",
      "type": "constructor"
    },
    {
      "anonymous": false,
      "inputs": [
        {
          "indexed": true,
          "internalType": "address",
          "name": "verifier",
          "type": "address"
        },
        {
          "indexed": false,
          "internalType": "uint256",
          "name": "newScore",
          "type": "uint256"
        }
      ],
      "name": "ReputationUpdated",
      "type": "event"
    },
    {
      "anonymous": false,
      "inputs": [
        {
          "indexed": true,
          "internalType": "bytes32",
          "name": "role",
          "type": "bytes32"
        },
        {
          "indexed": true,
          "internalType": "bytes32",
          "name": "previousAdminRole",
          "type": "bytes32"
        },
        {
          "indexed": true,
          "internalType": "bytes32",
          "name": "newAdminRole",
          "type": "bytes32"
        }
      ],
      "name": "RoleAdminChanged",
      "type": "event"
    },
    {
      "anonymous": false,
      "inputs": [
        {
          "indexed": true,
          "internalType": "bytes32",
          "name": "role",
          "type": "bytes32"
        },
        {
          "indexed": true,
          "internalType": "address",
          "name": "account",
          "type": "address"
        },
        {
          "indexed": true,
          "internalType": "address",
          "name": "sender",
          "type": "address"
        }
      ],
      "name": "RoleGranted",
      "type": "event"
    },
    {
      "anonymous": false,
      "inputs": [
        {
          "indexed": true,
          "internalType": "bytes32",
          "name": "role",
          "type": "bytes32"
        },
        {
          "indexed": true,
          "internalType": "address",
          "name": "account",
          "type": "address"
        },
        {
          "indexed": true,
          "internalType": "address",
          "name": "sender",
          "type": "address"
        }
      ],
      "name": "RoleRevoked",
      "type": "event"
    },
    {
      "inputs": [],
      "name": "DEFAULT_ADMIN_ROLE",
      "outputs": [
        {
          "internalType": "bytes32",
          "name": "",
          "type": "bytes32"
        }
      ],
      "stateMutability": "view",
      "type": "function"
    },
    {
      "inputs": [],
      "name": "UPDATER_ROLE",
      "outputs": [
        {
          "internalType": "bytes32",
          "name": "",
          "type": "bytes32"
        }
      ],
      "stateMutability": "view",
      "type": "function"
    },
    {
      "inputs": [
        {
          "internalType": "address",
          "name": "verifier",
          "type": "address"
        }
      ],
      "name": "getReputation",
      "outputs": [
        {
          "internalType": "uint256",
          "name": "",
          "type": "uint256"
        }
      ],
      "stateMutability": "view",
      "type": "function"
    },
    {
      "inputs": [
        {
          "internalType": "bytes32",
          "name": "role",
          "type": "bytes32"
        }
      ],
      "name": "getRoleAdmin",
      "outputs": [
        {
          "internalType": "bytes32",
          "name": "",
          "type": "bytes32"
        }
      ],
      "stateMutability": "view",
      "type": "function"
    },
    {
      "inputs": [
        {
          "internalType": "bytes32",
          "name": "role",
          "type": "bytes32"
        },
        {
          "internalType": "address",
          "name": "account",
          "type": "address"
        }
      ],
      "name": "grantRole",
      "outputs": [],
      "stateMutability": "nonpayable",
      "type": "function"
    },
    {
      "inputs": [
        {
          "internalType": "bytes32",
          "name": "role",
          "type": "bytes32"
        },
        {
          "internalType": "address",
          "name": "account",
          "type": "address"
        }
      ],
      "name": "hasRole",
      "outputs": [
        {
          "internalType": "bool",
          "name": "",
          "type": "bool"
        }
      ],
      "stateMutability": "view",
      "type": "function"
    },
    {
      "inputs": [
        {
          "internalType": "address",
          "name": "verifier",
          "type": "address"
        },
        {
          "internalType": "uint256",
          "name": "amount",
          "type": "uint256"
        }
      ],
      "name": "increaseReputation",
      "outputs": [],
      "stateMutability": "nonpayable",
      "type": "function"
    },
    {
      "inputs": [
        {
          "internalType": "bytes32",
          "name": "role",
          "type": "bytes32"
        },
        {
          "internalType": "address",
          "name": "account",
          "type": "address"
        }
      ],
      "name": "renounceRole",
      "outputs": [],
      "stateMutability": "nonpayable",
      "type": "function"
    },
    {
      "inputs": [
        {
          "internalType": "address",
          "name": "",
          "type": "address"
        }
      ],
      "name": "reputation",
      "outputs": [
        {
          "internalType": "uint256",
          "name": "",
          "type": "uint256"
        }
      ],
      "stateMutability": "view",
      "type": "function"
    },
    {
      "inputs": [
        {
          "internalType": "bytes32",
          "name": "role",
          "type": "bytes32"
        },
        {
          "internalType": "address",
          "name": "account",
          "type": "address"
        }
      ],
      "name": "revokeRole",
      "outputs": [],
      "stateMutability": "nonpayable",
      "type": "function"
    },
    {
      "inputs": [
        {
          "internalType": "bytes4",
          "name": "interfaceId",
          "type": "bytes4"
        }
      ],
      "name": "supportsInterface",
      "outputs": [
        {
          "internalType": "bool",
          "name": "",
          "type": "bool"
        }
      ],
      "stateMutability": "view",
      "type": "function"
    }
  ],
  "bytecode": "0x608060405234801561001057600080fd5b50604051610a69380380610a6983398101604081905261002f91610116565b61003a60008261006a565b6100647f73e573f9566d61418a34d5de3ff49360f9c51fec37f7486551670290f6285dab8261006a565b50610146565b6100748282610078565b5050565b6000828152602081815260408083206001600160a01b038516845290915290205460ff16610074576000828152602081815260408083206001600160a01b03851684529091529020805460ff191660011790556100d23390565b6001600160a01b0316816001600160a01b0316837f2f8788117e7eff1d82e926ec794901d17c78024a50270940304540a733656f0d60405160405180910390a45050565b60006020828403121561012857600080fd5b81516001600160a01b038116811461013f57600080fd5b9392505050565b610914806101556000396000f3fe608060405234801561001057600080fd5b50600436106100a95760003560e01c806391d148541161007157806391d14854146101565780639c89a0e214610169578063a217fddf14610192578063b9f794511461019a578063d547741f146101ba578063ded86d68146101cd57600080fd5b806301ffc9a7146100ae578063248a9ca3146100d65780632f2ff15d1461010757806336568abe1461011c57806347e633801461012f575b600080fd5b6100c16100bc3660046106bf565b6101e0565b60405190151581526020015b60405180910390f35b6100f96100e43660046106e9565b60009081526020819052604090206001015490565b6040519081526020016100cd565b61011a61011536600461071e565b610217565b005b61011a61012a36600461071e565b610241565b6100f97f73e573f9566d61418a34d5de3ff49360f9c51fec37f7486551670290f6285dab81565b6100c161016436600461071e565b6102c4565b6100f961017736600461074a565b6001600160a01b031660009081526001602052604090205490565b6100f9600081565b6100f96101a836600461074a565b60016020526000908152604090205481565b61011a6101c836600461071e565b6102ed565b61011a6101db366004610765565b610312565b60006001600160e01b03198216637965db0b60e01b148061021157506301ffc9a760e01b6001600160e01b03198316145b92915050565b600082815260208190526040902060010154610232816103bb565b61023c83836103c8565b505050565b6001600160a01b03811633146102b65760405162461bcd60e51b815260206004820152602f60248201527f416363657373436f6e74726f6c3a2063616e206f6e6c792072656e6f756e636560448201526e103937b632b9903337b91039b2b63360891b60648201526084015b60405180910390fd5b6102c0828261044c565b5050565b6000918252602082815260408084206001600160a01b0393909316845291905290205460ff1690565b600082815260208190526040902060010154610308816103bb565b61023c838361044c565b7f73e573f9566d61418a34d5de3ff49360f9c51fec37f7486551670290f6285dab61033c816103bb565b6001600160a01b038316600090815260016020526040812080548492906103649084906107a5565b90915550506001600160a01b0383166000818152600160209081526040918290205491519182527ffc577563f1b9a0461e24abef1e1fcc0d33d3d881f20b5df6dda59de4aae2c821910160405180910390a2505050565b6103c581336104b1565b50565b6103d282826102c4565b6102c0576000828152602081815260408083206001600160a01b03851684529091529020805460ff191660011790556104083390565b6001600160a01b0316816001600160a01b0316837f2f8788117e7eff1d82e926ec794901d17c78024a50270940304540a733656f0d60405160405180910390a45050565b61045682826102c4565b156102c0576000828152602081815260408083206001600160a01b0385168085529252808320805460ff1916905551339285917ff6391f5c32d9c69d2a47ea670b442974b53935d1edc7fd64eb21e047a839171b9190a45050565b6104bb82826102c4565b6102c0576104c88161050a565b6104d383602061051c565b6040516020016104e49291906107dc565b60408051601f198184030181529082905262461bcd60e51b82526102ad91600401610851565b60606102116001600160a01b03831660145b6060600061052b836002610884565b6105369060026107a5565b67ffffffffffffffff81111561054e5761054e61089b565b6040519080825280601f01601f191660200182016040528015610578576020820181803683370190505b509050600360fc1b81600081518110610593576105936108b1565b60200101906001600160f81b031916908160001a905350600f60fb1b816001815181106105c2576105c26108b1565b60200101906001600160f81b031916908160001a90535060006105e6846002610884565b6105f19060016107a5565b90505b6001811115610669576f181899199a1a9b1b9c1cb0b131b232b360811b85600f1660108110610625576106256108b1565b1a60f81b82828151811061063b5761063b6108b1565b60200101906001600160f81b031916908160001a90535060049490941c93610662816108c7565b90506105f4565b5083156106b85760405162461bcd60e51b815260206004820181905260248201527f537472696e67733a20686578206c656e67746820696e73756666696369656e7460448201526064016102ad565b9392505050565b6000602082840312156106d157600080fd5b81356001600160e01b0319811681146106b857600080fd5b6000602082840312156106fb57600080fd5b5035919050565b80356001600160a01b038116811461071957600080fd5b919050565b6000806040838503121561073157600080fd5b8235915061074160208401610702565b90509250929050565b60006020828403121561075c57600080fd5b6106b882610702565b6000806040838503121561077857600080fd5b61078183610702565b946020939093013593505050565b634e487b7160e01b600052601160045260246000fd5b808201808211156102115761021161078f565b60005b838110156107d35781810151838201526020016107bb565b50506000910152565b7f416363657373436f6e74726f6c3a206163636f756e74200000000000000000008152600083516108148160178501602088016107b8565b7001034b99036b4b9b9b4b733903937b6329607d1b60179184019182015283516108458160288401602088016107b8565b01602801949350505050565b60208152600082518060208401526108708160408501602087016107b8565b601f01601f19169190910160400192915050565b80820281158282048414176102115761021161078f565b634e487b7160e01b600052604160045260246000fd5b634e487b7160e01b600052603260045260246000fd5b6000816108d6576108d661078f565b50600019019056fea2646970667358221220b179789cd419bbaaf887c2ce17a0837b1cc3305ff2668d72e6e844325700410464736f6c63430008140033",
  "linkReferences": {},
  "deployedLinkReferences": {}
}